{
  "contractName": "ProductDetails",
  "abi": [
    {
      "inputs": [],
      "payable": false,
      "stateMutability": "nonpayable",
      "type": "constructor"
    },
    {
      "anonymous": false,
      "inputs": [
        {
          "indexed": false,
          "internalType": "uint256",
          "name": "id",
          "type": "uint256"
        },
        {
          "indexed": false,
          "internalType": "string",
          "name": "productDetails",
          "type": "string"
        },
        {
          "indexed": false,
          "internalType": "uint256",
          "name": "price",
          "type": "uint256"
        },
        {
          "indexed": false,
          "internalType": "uint256",
          "name": "warranty",
          "type": "uint256"
        },
        {
          "indexed": false,
          "internalType": "uint16",
          "name": "yearOfRelease",
          "type": "uint16"
        },
        {
          "indexed": false,
          "internalType": "uint256",
          "name": "createdAt",
          "type": "uint256"
        }
      ],
      "name": "ProductCreated",
      "type": "event"
    },
    {
      "constant": true,
      "inputs": [],
      "name": "productCount",
      "outputs": [
        {
          "internalType": "uint256",
          "name": "",
          "type": "uint256"
        }
      ],
      "payable": false,
      "stateMutability": "view",
      "type": "function"
    },
    {
      "constant": true,
      "inputs": [
        {
          "internalType": "uint256",
          "name": "",
          "type": "uint256"
        }
      ],
      "name": "products",
      "outputs": [
        {
          "internalType": "uint256",
          "name": "id",
          "type": "uint256"
        },
        {
          "internalType": "string",
          "name": "productDetails",
          "type": "string"
        },
        {
          "internalType": "uint256",
          "name": "price",
          "type": "uint256"
        },
        {
          "internalType": "uint256",
          "name": "warranty",
          "type": "uint256"
        },
        {
          "internalType": "uint16",
          "name": "yearOfRelease",
          "type": "uint16"
        },
        {
          "internalType": "uint256",
          "name": "createdAt",
          "type": "uint256"
        }
      ],
      "payable": false,
      "stateMutability": "view",
      "type": "function"
    },
    {
      "constant": false,
      "inputs": [
        {
          "internalType": "string",
          "name": "_productDetails",
          "type": "string"
        },
        {
          "internalType": "uint256",
          "name": "_price",
          "type": "uint256"
        },
        {
          "internalType": "uint256",
          "name": "_warranty",
          "type": "uint256"
        },
        {
          "internalType": "uint16",
          "name": "_yearOfRelease",
          "type": "uint16"
        }
      ],
      "name": "createProduct",
      "outputs": [],
      "payable": false,
      "stateMutability": "nonpayable",
      "type": "function"
    }
  ],
  "bytecode": "0x60806040526000805534801561001457600080fd5b5060606040518060600160405280602b8152602001610770602b9139905061004d816105146101686107e66001600160e01b0361005316565b5061026e565b6000805460019081018083556040805160c08101825282815260208082018a81528284018a90526060830189905261ffff881660808401524260a084018190529487528582529290952081518155915180519395919492936100bc9385019291909101906101d3565b50604082015181600201556060820151816003015560808201518160040160006101000a81548161ffff021916908361ffff16021790555060a082015181600501559050507f23006b393e892ddafa3d8e421594a2297fe629613f4f822f495a7716a516dfa2600054868686868660405180878152602001806020018681526020018581526020018461ffff1661ffff168152602001838152602001828103825287818151815260200191508051906020019080838360005b8381101561018d578181015183820152602001610175565b50505050905090810190601f1680156101ba5780820380516001836020036101000a031916815260200191505b5097505050505050505060405180910390a15050505050565b828054600181600116156101000203166002900490600052602060002090601f016020900481019282601f1061021457805160ff1916838001178555610241565b82800160010185558215610241579182015b82811115610241578251825591602001919060010190610226565b5061024d929150610251565b5090565b61026b91905b8082111561024d5760008155600101610257565b90565b6104f38061027d6000396000f3fe608060405234801561001057600080fd5b50600436106100415760003560e01c80631dd3a149146100465780637acc0b20146100fd578063e0f6ef87146101bd575b600080fd5b6100fb6004803603608081101561005c57600080fd5b81019060208101813564010000000081111561007757600080fd5b82018360208201111561008957600080fd5b803590602001918460018302840111640100000000831117156100ab57600080fd5b91908080601f016020809104026020016040519081016040528093929190818152602001838380828437600092019190915250929550508235935050506020810135906040013561ffff166101d7565b005b61011a6004803603602081101561011357600080fd5b5035610357565b60405180878152602001806020018681526020018581526020018461ffff1661ffff168152602001838152602001828103825287818151815260200191508051906020019080838360005b8381101561017d578181015183820152602001610165565b50505050905090810190601f1680156101aa5780820380516001836020036101000a031916815260200191505b5097505050505050505060405180910390f35b6101c561041d565b60408051918252519081900360200190f35b6000805460019081018083556040805160c08101825282815260208082018a81528284018a90526060830189905261ffff881660808401524260a08401819052948752858252929095208151815591518051939591949293610240938501929190910190610423565b50604082015181600201556060820151816003015560808201518160040160006101000a81548161ffff021916908361ffff16021790555060a082015181600501559050507f23006b393e892ddafa3d8e421594a2297fe629613f4f822f495a7716a516dfa2600054868686868660405180878152602001806020018681526020018581526020018461ffff1661ffff168152602001838152602001828103825287818151815260200191508051906020019080838360005b838110156103115781810151838201526020016102f9565b50505050905090810190601f16801561033e5780820380516001836020036101000a031916815260200191505b5097505050505050505060405180910390a15050505050565b600160208181526000928352604092839020805481840180548651600296821615610100026000190190911695909504601f810185900485028601850190965285855290949193929091908301828280156103f35780601f106103c8576101008083540402835291602001916103f3565b820191906000526020600020905b8154815290600101906020018083116103d657829003601f168201915b5050506002840154600385015460048601546005909601549495919490935061ffff909116915086565b60005481565b828054600181600116156101000203166002900490600052602060002090601f016020900481019282601f1061046457805160ff1916838001178555610491565b82800160010185558215610491579182015b82811115610491578251825591602001919060010190610476565b5061049d9291506104a1565b5090565b6104bb91905b8082111561049d57600081556001016104a7565b9056fea265627a7a72315820e3b175425167e91e7375def43a11404fca824d77ac4e9a6dc65d98a40d53113364736f6c634300051000324950686f6e652031327c494a357c4170706c657c55537c5465737420446573637c50686f6e657c5061756c",
  "source": "pragma solidity ^0.5.0;\r\n\r\ncontract ProductDetails {\r\n    //State variable - State of the contrct inside the blockchain\r\n    uint public productCount = 0;\r\n\r\n    struct ProductEntity{\r\n        uint id;\r\n        /*string name;\r\n        string referenceId;\r\n        string manufacturer;\r\n        string madeIn;\r\n        string description;\r\n        string category;*/\r\n\r\n        string productDetails; //name , referenceId, manufacturer, madeIn, description, category, createdBy\r\n        uint256 price;\r\n        uint256 warranty;\r\n        uint16 yearOfRelease;\r\n        //string createdBy;\r\n        uint256 createdAt;\r\n    }\r\n\r\n    mapping(uint => ProductEntity) public products;\r\n\r\n    event ProductCreated(\r\n        uint id,\r\n        string productDetails,\r\n        uint256 price,\r\n        uint256 warranty,\r\n        uint16 yearOfRelease,\r\n        uint256 createdAt\r\n    );\r\n\r\n    constructor() public {\r\n        string memory productDetails = \"IPhone 12|IJ5|Apple|US|Test Desc|Phone|Paul\";\r\n        createProduct(productDetails, 1300, 360, 2022);\r\n    }\r\n\r\n    function createProduct(string memory _productDetails,\r\n                            uint256 _price,\r\n                            uint256 _warranty,\r\n                            uint16 _yearOfRelease) public {\r\n        productCount ++;\r\n        uint256 createdAt = block.timestamp;\r\n\r\n        products[productCount] = ProductEntity(productCount, \r\n                                        _productDetails, \r\n                                        _price,\r\n                                        _warranty,\r\n                                        _yearOfRelease,\r\n                                        createdAt);\r\n\r\n        emit ProductCreated(productCount, \r\n                            _productDetails, \r\n                            _price, \r\n                            _warranty, \r\n                            _yearOfRelease,\r\n                            createdAt);\r\n    }\r\n}",
  "sourcePath": "F:\\Do Coding\\Proj\\Blockchain\\product-auth-app\\contracts\\ProductDetails.sol",
  "compiler": {
    "name": "solc",
    "version": "0.5.16+commit.9c3226ce.Emscripten.clang"
  },
  "schemaVersion": "3.4.16",
  "updatedAt": "2024-03-17T20:17:17.468Z",
  "devdoc": {
    "methods": {}
  },
  "userdoc": {
    "methods": {}
  }
}